{
  "contractName": "TokenSwap",
  "abi": [
    {
      "anonymous": false,
      "inputs": [
        {
          "indexed": false,
          "internalType": "address",
          "name": "account",
          "type": "address"
        }
      ],
      "name": "Paused",
      "type": "event"
    },
    {
      "anonymous": false,
      "inputs": [
        {
          "indexed": false,
          "internalType": "address",
          "name": "account",
          "type": "address"
        }
      ],
      "name": "Unpaused",
      "type": "event"
    },
    {
      "inputs": [],
      "name": "paused",
      "outputs": [
        {
          "internalType": "bool",
          "name": "",
          "type": "bool"
        }
      ],
      "stateMutability": "view",
      "type": "function",
      "constant": true
    },
    {
      "inputs": [
        {
          "internalType": "contract IERC20Upgradeable",
          "name": "token",
          "type": "address"
        }
      ],
      "name": "initialize",
      "outputs": [],
      "stateMutability": "nonpayable",
      "type": "function"
    },
    {
      "inputs": [],
      "name": "swapETH",
      "outputs": [],
      "stateMutability": "payable",
      "type": "function",
      "payable": true
    },
    {
      "inputs": [
        {
          "internalType": "address",
          "name": "_token",
          "type": "address"
        },
        {
          "internalType": "uint256",
          "name": "_amount",
          "type": "uint256"
        }
      ],
      "name": "swapOtherTokens",
      "outputs": [],
      "stateMutability": "nonpayable",
      "type": "function"
    }
  ],
  "bytecode": "0x608060405234801561001057600080fd5b5061107c806100206000396000f3fe60806040526004361061003f5760003560e01c80635c256ab0146100445780635c975abb1461006d578063b458bdaf14610098578063c4d66de8146100a2575b600080fd5b34801561005057600080fd5b5061006b6004803603810190610066919061090b565b6100cb565b005b34801561007957600080fd5b50610082610531565b60405161008f9190610bfb565b60405180910390f35b6100a0610548565b005b3480156100ae57600080fd5b506100c960048036038101906100c49190610978565b6106be565b005b6100d3610531565b15610113576040517f08c379a000000000000000000000000000000000000000000000000000000000815260040161010a90610c56565b60405180910390fd5b60008290506000670de0b6b3a76400008361012e9190610d12565b9050600060c88261013f9190610d12565b9050818373ffffffffffffffffffffffffffffffffffffffff1663dd62ed3e33306040518363ffffffff1660e01b815260040161017d929190610b9b565b60206040518083038186803b15801561019557600080fd5b505afa1580156101a9573d6000803e3d6000fd5b505050506040513d601f19601f820116820180604052508101906101cd91906109a5565b101561020e576040517f08c379a000000000000000000000000000000000000000000000000000000000815260040161020590610cb6565b60405180910390fd5b80606660009054906101000a900473ffffffffffffffffffffffffffffffffffffffff1673ffffffffffffffffffffffffffffffffffffffff1663dd62ed3e606560009054906101000a900473ffffffffffffffffffffffffffffffffffffffff16306040518363ffffffff1660e01b815260040161028e929190610b3b565b60206040518083038186803b1580156102a657600080fd5b505afa1580156102ba573d6000803e3d6000fd5b505050506040513d601f19601f820116820180604052508101906102de91906109a5565b101561031f576040517f08c379a000000000000000000000000000000000000000000000000000000000815260040161031690610cd6565b60405180910390fd5b60008373ffffffffffffffffffffffffffffffffffffffff166323b872dd33606560009054906101000a900473ffffffffffffffffffffffffffffffffffffffff16866040518463ffffffff1660e01b815260040161038093929190610bc4565b602060405180830381600087803b15801561039a57600080fd5b505af11580156103ae573d6000803e3d6000fd5b505050506040513d601f19601f820116820180604052508101906103d2919061094b565b905080610414576040517f08c379a000000000000000000000000000000000000000000000000000000000815260040161040b90610c76565b60405180910390fd5b606660009054906101000a900473ffffffffffffffffffffffffffffffffffffffff1673ffffffffffffffffffffffffffffffffffffffff166323b872dd606560009054906101000a900473ffffffffffffffffffffffffffffffffffffffff1633856040518463ffffffff1660e01b815260040161049593929190610b64565b602060405180830381600087803b1580156104af57600080fd5b505af11580156104c3573d6000803e3d6000fd5b505050506040513d601f19601f820116820180604052508101906104e7919061094b565b905080610529576040517f08c379a000000000000000000000000000000000000000000000000000000000815260040161052090610c76565b60405180910390fd5b505050505050565b6000603360009054906101000a900460ff16905090565b610550610531565b15610590576040517f08c379a000000000000000000000000000000000000000000000000000000000815260040161058790610c56565b60405180910390fd5b6105db34606560009054906101000a900473ffffffffffffffffffffffffffffffffffffffff1673ffffffffffffffffffffffffffffffffffffffff166107ae90919063ffffffff16565b606660009054906101000a900473ffffffffffffffffffffffffffffffffffffffff1673ffffffffffffffffffffffffffffffffffffffff166323b872dd606560009054906101000a900473ffffffffffffffffffffffffffffffffffffffff16336175303461064b9190610d12565b6040518463ffffffff1660e01b815260040161066993929190610b64565b602060405180830381600087803b15801561068357600080fd5b505af1158015610697573d6000803e3d6000fd5b505050506040513d601f19601f820116820180604052508101906106bb919061094b565b50565b606660149054906101000a900460ff161561070e576040517f08c379a000000000000000000000000000000000000000000000000000000000815260040161070590610c96565b60405180910390fd5b80606660006101000a81548173ffffffffffffffffffffffffffffffffffffffff021916908373ffffffffffffffffffffffffffffffffffffffff16021790555033606560006101000a81548173ffffffffffffffffffffffffffffffffffffffff021916908373ffffffffffffffffffffffffffffffffffffffff1602179055506001606660146101000a81548160ff02191690831515021790555050565b804710156107f1576040517f08c379a00000000000000000000000000000000000000000000000000000000081526004016107e890610c36565b60405180910390fd5b60008273ffffffffffffffffffffffffffffffffffffffff168260405161081790610b26565b60006040518083038185875af1925050503d8060008114610854576040519150601f19603f3d011682016040523d82523d6000602084013e610859565b606091505b505090508061089d576040517f08c379a000000000000000000000000000000000000000000000000000000000815260040161089490610c16565b60405180910390fd5b505050565b6000813590506108b181610fea565b92915050565b6000815190506108c681611001565b92915050565b6000813590506108db81611018565b92915050565b6000813590506108f08161102f565b92915050565b6000815190506109058161102f565b92915050565b6000806040838503121561092257610921610e2b565b5b6000610930858286016108a2565b9250506020610941858286016108e1565b9150509250929050565b60006020828403121561096157610960610e2b565b5b600061096f848285016108b7565b91505092915050565b60006020828403121561098e5761098d610e2b565b5b600061099c848285016108cc565b91505092915050565b6000602082840312156109bb576109ba610e2b565b5b60006109c9848285016108f6565b91505092915050565b6109db81610dc6565b82525050565b6109ea81610d6c565b82525050565b6109f981610d7e565b82525050565b6000610a0c603a83610d01565b9150610a1782610e30565b604082019050919050565b6000610a2f601d83610d01565b9150610a3a82610e7f565b602082019050919050565b6000610a52601083610d01565b9150610a5d82610ea8565b602082019050919050565b6000610a75601583610d01565b9150610a8082610ed1565b602082019050919050565b6000610a98602e83610d01565b9150610aa382610efa565b604082019050919050565b6000610abb602983610d01565b9150610ac682610f49565b604082019050919050565b6000610ade603483610d01565b9150610ae982610f98565b604082019050919050565b6000610b01600083610cf6565b9150610b0c82610fe7565b600082019050919050565b610b2081610dbc565b82525050565b6000610b3182610af4565b9150819050919050565b6000604082019050610b5060008301856109d2565b610b5d60208301846109e1565b9392505050565b6000606082019050610b7960008301866109d2565b610b8660208301856109e1565b610b936040830184610b17565b949350505050565b6000604082019050610bb060008301856109e1565b610bbd60208301846109e1565b9392505050565b6000606082019050610bd960008301866109e1565b610be660208301856109d2565b610bf36040830184610b17565b949350505050565b6000602082019050610c1060008301846109f0565b92915050565b60006020820190508181036000830152610c2f816109ff565b9050919050565b60006020820190508181036000830152610c4f81610a22565b9050919050565b60006020820190508181036000830152610c6f81610a45565b9050919050565b60006020820190508181036000830152610c8f81610a68565b9050919050565b60006020820190508181036000830152610caf81610a8b565b9050919050565b60006020820190508181036000830152610ccf81610aae565b9050919050565b60006020820190508181036000830152610cef81610ad1565b9050919050565b600081905092915050565b600082825260208201905092915050565b6000610d1d82610dbc565b9150610d2883610dbc565b9250817fffffffffffffffffffffffffffffffffffffffffffffffffffffffffffffffff0483118215151615610d6157610d60610dfc565b5b828202905092915050565b6000610d7782610d9c565b9050919050565b60008115159050919050565b6000610d9582610d6c565b9050919050565b600073ffffffffffffffffffffffffffffffffffffffff82169050919050565b6000819050919050565b6000610dd182610dd8565b9050919050565b6000610de382610dea565b9050919050565b6000610df582610d9c565b9050919050565b7f4e487b7100000000000000000000000000000000000000000000000000000000600052601160045260246000fd5b600080fd5b7f416464726573733a20756e61626c6520746f2073656e642076616c75652c207260008201527f6563697069656e74206d61792068617665207265766572746564000000000000602082015250565b7f416464726573733a20696e73756666696369656e742062616c616e6365000000600082015250565b7f5061757361626c653a2070617573656400000000000000000000000000000000600082015250565b7f546f6b656e207472616e73666572206661696c65640000000000000000000000600082015250565b7f436f6e747261637420696e7374616e63652068617320616c726561647920626560008201527f656e20696e697469616c697a6564000000000000000000000000000000000000602082015250565b7f596f7520646964206e6f7420617070726f766520656e6f75676820616d6f756e60008201527f7420746f20737761700000000000000000000000000000000000000000000000602082015250565b7f446f206e6f74206861766520656e6f756768206441626163757320746f6b656e60008201527f7320617661696c61626c6520666f722073776170000000000000000000000000602082015250565b50565b610ff381610d6c565b8114610ffe57600080fd5b50565b61100a81610d7e565b811461101557600080fd5b50565b61102181610d8a565b811461102c57600080fd5b50565b61103881610dbc565b811461104357600080fd5b5056fea2646970667358221220f2416534c1fe29ee4a8c388a2034ac25e9acbba7d24f9bd4e7aaf6ff2bc1f8e264736f6c63430008060033",
  "immutableReferences": {},
  "source": "// SPDX-License-Identifier: MIT\npragma solidity ^0.8.0;\n\nimport \"@openzeppelin/contracts-upgradeable/token/ERC20/IERC20Upgradeable.sol\";\nimport \"@openzeppelin/contracts-upgradeable/utils/AddressUpgradeable.sol\";\nimport \"@openzeppelin/contracts-upgradeable/security/PausableUpgradeable.sol\";\nimport \"@openzeppelin/contracts-upgradeable/proxy/utils/Initializable.sol\";\n\ncontract TokenSwap is Initializable, PausableUpgradeable {\n\n    using AddressUpgradeable for address payable;\n\n    address payable private _dabacusOwnerAddress;\n    IERC20Upgradeable private _dabacusToken;\n    bool private initialized;\n\n    function initialize(IERC20Upgradeable token) public {\n        require(!initialized, \"Contract instance has already been initialized\");\n        _dabacusToken = token;\n        _dabacusOwnerAddress = payable(msg.sender);\n        initialized = true;\n    }\n\n    function swapETH() public payable whenNotPaused {\n\n        _dabacusOwnerAddress.sendValue(msg.value);\n        _dabacusToken.transferFrom(_dabacusOwnerAddress, msg.sender, msg.value * 30000);\n    }\n\n    function swapOtherTokens(address _token, uint _amount) public whenNotPaused {\n        IERC20Upgradeable token = IERC20Upgradeable(_token);\n        uint256 amount = _amount * 10 ** 18;\n        uint256 receiveAmount = amount * 200;\n\n        require(\n            token.allowance(msg.sender, address(this)) >= amount,\n            \"You did not approve enough amount to swap\"\n        );\n\n        require(\n            _dabacusToken.allowance(_dabacusOwnerAddress, address(this)) >= receiveAmount,\n            \"Do not have enough dAbacus tokens available for swap\"\n        );\n\n        bool sent = token.transferFrom(msg.sender, _dabacusOwnerAddress, amount);\n        require(sent, \"Token transfer failed\");\n\n        sent = _dabacusToken.transferFrom(_dabacusOwnerAddress, msg.sender, receiveAmount);\n        require(sent, \"Token transfer failed\");\n    }\n}",
  "sourcePath": "/Users/joshua/work/dabacus/test/token/dAbacus/contracts/TokenSwap.sol",
  "compiler": {
    "name": "solc",
    "version": "0.8.6+commit.11564f7e.Emscripten.clang"
  },
  "schemaVersion": "3.4.1",
  "updatedAt": "2021-07-21T07:21:18.348Z",
  "networkType": "ethereum",
  "devdoc": {
    "kind": "dev",
    "methods": {
      "paused()": {
        "details": "Returns true if the contract is paused, and false otherwise."
      }
    },
    "version": 1
  },
  "userdoc": {
    "kind": "user",
    "methods": {},
    "version": 1
  }
}