{
  "contractName": "TokenSwap",
  "abi": [
    {
      "inputs": [
        {
          "internalType": "contract ERC20",
          "name": "token",
          "type": "address"
        }
      ],
      "stateMutability": "nonpayable",
      "type": "constructor"
    },
    {
      "inputs": [],
      "name": "swapETH",
      "outputs": [],
      "stateMutability": "payable",
      "type": "function",
      "payable": true
    },
    {
      "inputs": [
        {
          "internalType": "address",
          "name": "_token",
          "type": "address"
        },
        {
          "internalType": "uint256",
          "name": "_amount",
          "type": "uint256"
        }
      ],
      "name": "swapOtherTokens",
      "outputs": [],
      "stateMutability": "nonpayable",
      "type": "function"
    }
  ],
  "bytecode": "0x608060405234801561001057600080fd5b50604051610c0d380380610c0d833981810160405281019061003291906100ce565b80600160006101000a81548173ffffffffffffffffffffffffffffffffffffffff021916908373ffffffffffffffffffffffffffffffffffffffff160217905550336000806101000a81548173ffffffffffffffffffffffffffffffffffffffff021916908373ffffffffffffffffffffffffffffffffffffffff1602179055505061015b565b6000815190506100c881610144565b92915050565b6000602082840312156100e4576100e361013f565b5b60006100f2848285016100b9565b91505092915050565b60006101068261011f565b9050919050565b6000610118826100fb565b9050919050565b600073ffffffffffffffffffffffffffffffffffffffff82169050919050565b600080fd5b61014d8161010d565b811461015857600080fd5b50565b610aa38061016a6000396000f3fe6080604052600436106100295760003560e01c80635c256ab01461002e578063b458bdaf14610057575b600080fd5b34801561003a57600080fd5b506100556004803603810190610050919061061a565b610061565b005b61005f61047f565b005b60008290506000670de0b6b3a76400008361007c919061087b565b9050808273ffffffffffffffffffffffffffffffffffffffff1663dd62ed3e33306040518363ffffffff1660e01b81526004016100ba9291906107aa565b60206040518083038186803b1580156100d257600080fd5b505afa1580156100e6573d6000803e3d6000fd5b505050506040513d601f19601f8201168201806040525081019061010a9190610687565b101561014b576040517f08c379a00000000000000000000000000000000000000000000000000000000081526004016101429061082a565b60405180910390fd5b600281610158919061087b565b600160009054906101000a900473ffffffffffffffffffffffffffffffffffffffff1673ffffffffffffffffffffffffffffffffffffffff1663dd62ed3e60008054906101000a900473ffffffffffffffffffffffffffffffffffffffff16306040518363ffffffff1660e01b81526004016101d592919061074a565b60206040518083038186803b1580156101ed57600080fd5b505afa158015610201573d6000803e3d6000fd5b505050506040513d601f19601f820116820180604052508101906102259190610687565b1015610266576040517f08c379a000000000000000000000000000000000000000000000000000000000815260040161025d9061080a565b60405180910390fd5b60008273ffffffffffffffffffffffffffffffffffffffff166323b872dd3360008054906101000a900473ffffffffffffffffffffffffffffffffffffffff16856040518463ffffffff1660e01b81526004016102c5939291906107d3565b602060405180830381600087803b1580156102df57600080fd5b505af11580156102f3573d6000803e3d6000fd5b505050506040513d601f19601f82011682018060405250810190610317919061065a565b905080610359576040517f08c379a00000000000000000000000000000000000000000000000000000000081526004016103509061084a565b60405180910390fd5b600160009054906101000a900473ffffffffffffffffffffffffffffffffffffffff1673ffffffffffffffffffffffffffffffffffffffff166323b872dd60008054906101000a900473ffffffffffffffffffffffffffffffffffffffff16336002866103c6919061087b565b6040518463ffffffff1660e01b81526004016103e493929190610773565b602060405180830381600087803b1580156103fe57600080fd5b505af1158015610412573d6000803e3d6000fd5b505050506040513d601f19601f82011682018060405250810190610436919061065a565b905080610478576040517f08c379a000000000000000000000000000000000000000000000000000000000815260040161046f9061084a565b60405180910390fd5b5050505050565b60008054906101000a900473ffffffffffffffffffffffffffffffffffffffff1673ffffffffffffffffffffffffffffffffffffffff166108fc349081150290604051600060405180830381858888f193505050501580156104e5573d6000803e3d6000fd5b50600160009054906101000a900473ffffffffffffffffffffffffffffffffffffffff1673ffffffffffffffffffffffffffffffffffffffff166323b872dd60008054906101000a900473ffffffffffffffffffffffffffffffffffffffff1633600334610553919061087b565b6040518463ffffffff1660e01b815260040161057193929190610773565b602060405180830381600087803b15801561058b57600080fd5b505af115801561059f573d6000803e3d6000fd5b505050506040513d601f19601f820116820180604052508101906105c3919061065a565b50565b6000813590506105d581610a28565b92915050565b6000815190506105ea81610a3f565b92915050565b6000813590506105ff81610a56565b92915050565b60008151905061061481610a56565b92915050565b6000806040838503121561063157610630610982565b5b600061063f858286016105c6565b9250506020610650858286016105f0565b9150509250929050565b6000602082840312156106705761066f610982565b5b600061067e848285016105db565b91505092915050565b60006020828403121561069d5761069c610982565b5b60006106ab84828501610605565b91505092915050565b6106bd8161091d565b82525050565b6106cc816108d5565b82525050565b60006106df601c8361086a565b91506106ea82610987565b602082019050919050565b600061070260218361086a565b915061070d826109b0565b604082019050919050565b600061072560158361086a565b9150610730826109ff565b602082019050919050565b61074481610913565b82525050565b600060408201905061075f60008301856106b4565b61076c60208301846106c3565b9392505050565b600060608201905061078860008301866106b4565b61079560208301856106c3565b6107a2604083018461073b565b949350505050565b60006040820190506107bf60008301856106c3565b6107cc60208301846106c3565b9392505050565b60006060820190506107e860008301866106c3565b6107f560208301856106b4565b610802604083018461073b565b949350505050565b60006020820190508181036000830152610823816106d2565b9050919050565b60006020820190508181036000830152610843816106f5565b9050919050565b6000602082019050818103600083015261086381610718565b9050919050565b600082825260208201905092915050565b600061088682610913565b915061089183610913565b9250817fffffffffffffffffffffffffffffffffffffffffffffffffffffffffffffffff04831182151516156108ca576108c9610953565b5b828202905092915050565b60006108e0826108f3565b9050919050565b60008115159050919050565b600073ffffffffffffffffffffffffffffffffffffffff82169050919050565b6000819050919050565b60006109288261092f565b9050919050565b600061093a82610941565b9050919050565b600061094c826108f3565b9050919050565b7f4e487b7100000000000000000000000000000000000000000000000000000000600052601160045260246000fd5b600080fd5b7f446f206e6f74206861766520656e6f756768205368656e204c6f6e6700000000600082015250565b7f596f7520646964206e6f7420617070726f766520656e6f75676820616d6f756e60008201527f7400000000000000000000000000000000000000000000000000000000000000602082015250565b7f546f6b656e207472616e73666572206661696c65640000000000000000000000600082015250565b610a31816108d5565b8114610a3c57600080fd5b50565b610a48816108e7565b8114610a5357600080fd5b50565b610a5f81610913565b8114610a6a57600080fd5b5056fea2646970667358221220fd184bbb78f4a3d75ad45d511fc43e37435b9373350faafacd17a40da8a0b85b64736f6c63430008060033",
  "immutableReferences": {},
  "source": "pragma solidity ^0.8.0;\n\nimport \"@openzeppelin/contracts/token/ERC20/ERC20.sol\";\n\ncontract TokenSwap {\n\n    address payable private _slgOwnerAddress;\n    IERC20 private _slgToken;\n\n    constructor (ERC20 token) public {\n        _slgToken = token;\n        _slgOwnerAddress = payable(msg.sender);\n    }\n\n    function swapETH() public payable {\n        _slgOwnerAddress.transfer(msg.value);\n        _slgToken.transferFrom(_slgOwnerAddress, msg.sender, msg.value * 3);\n    }\n\n    function swapOtherTokens(address _token, uint _amount) public {\n        ERC20 token = ERC20(_token);\n        uint256 amount = _amount * 10 ** 18;\n\n        require(\n            token.allowance(msg.sender, address(this)) >= amount,\n            \"You did not approve enough amount\"\n        );\n\n        require(\n            _slgToken.allowance(_slgOwnerAddress, address(this)) >= amount * 2,\n            \"Do not have enough Shen Long\"\n        );\n\n        bool sent = token.transferFrom(msg.sender, _slgOwnerAddress, amount);\n        require(sent, \"Token transfer failed\");\n\n        sent = _slgToken.transferFrom(_slgOwnerAddress, msg.sender, amount * 2);\n        require(sent, \"Token transfer failed\");\n    }\n}",
  "sourcePath": "/Users/joshua/work/dabacus/test/swap/contracts/TokenSwap.sol",
  "compiler": {
    "name": "solc",
    "version": "0.8.6+commit.11564f7e.Emscripten.clang"
  },
  "schemaVersion": "3.4.1",
  "updatedAt": "2021-07-13T02:40:55.616Z",
  "networkType": "ethereum",
  "devdoc": {
    "kind": "dev",
    "methods": {},
    "version": 1
  },
  "userdoc": {
    "kind": "user",
    "methods": {},
    "version": 1
  }
}